:100000000C9446000C9465000C9465000C946500FB
:100010000C9465000C9465000C9465000C946500CC
:100020000C9465000C9465000C9465000C946500BC
:100030000C9465000C9465000C9465000C946500AC
:100040000C9465000C9465000C9465000C9465009C
:100050000C9465000C9465000C9465000C9465008C
:100060000C9465000C9465000C9465000C9465007C
:100070000C9465000C9465000C9465000C9465006C
:100080000C9465000C9465000C94650011241FBE4F
:10009000CFEFD0E1DEBFCDBF11E0A0E0B1E0EAEBF1
:1000A000F4E600E00BBF02C007900D92AC37B10739
:1000B000D9F711E0ACE7B1E001C01D92A63DB10750
:1000C000E1F70E9467000C945B320C9400000F93E0
:1000D0001F93DF93CF93CDB7DEB7C25CD1400FB68D
:1000E000F894DEBF0FBECDBF0E940228FE01EF5381
:1000F000FE4F11821082FE01E154FE4F11821082E8
:10010000FE01E354FE4F11821082FE01E554FE4FC2
:1001100011821082FE01E754FE4F11821082FE010F
:10012000E954FE4F11821082FE01E155FE4F84E634
:1001300090E091838083FE01E355FE4F88E290E0DA
:1001400091838083FE01E555FE4F8BE190E0918322
:1001500080830E942C1C0E944F1EE8E3F0E080E3A5
:100160008083E5E3F0E080E88083EAE3F0E081E08B
:100170008083E1E3F0E085E58083E1E6F0E085E57A
:100180008083E1E5F0E082E3808380E090E061E05D
:1001900070E00E940E18FE01EB54FE4F91838083A5
:1001A000FE01EF55FE4F80E090E0A0E2B1E48083D5
:1001B0009183A283B3838E0103561E4FFE01EF5538
:1001C000FE4F608171818281938120E030E04AE7B7
:1001D00055E40E94FB2ADC01CB01F8018083918366
:1001E000A283B383FE01E356FE4F60817181828159
:1001F000938120E030E040E85FE30E94012D8823F6
:1002000044F4FE01E556FE4F81E090E09183808347
:1002100064C0FE01E356FE4F60817181828193814B
:1002200020E03FEF4FE757E40E94A12C18160CF096
:1002300043C0FE01EF55FE4F608171818281938141
:1002400020E030E040E251E40E94FB2ADC01CB01D7
:100250008E0105561E4FBC01CD010E942529DC01EF
:10026000CB01F801918380831FC0FE01E756FE4F4A
:1002700080E991E091838083FE01E756FE4F808103
:1002800091810197F1F7FE01E756FE4F918380833C
:10029000DE01A556BE4FFE01E556FE4F80819181DD
:1002A000019711969C938E93FE01E556FE4F808137
:1002B00091810097D1F627C08E0105561E4FFE0191
:1002C000E356FE4F60817181828193810E942529CE
:1002D000DC01CB01F80191838083DE01A956BE4F7A
:1002E000FE01E556FE4F808191818D939C93FE0126
:1002F000E956FE4F808191810197F1F7FE01E956A1
:10030000FE4F9183808382E090E063E070E00E9482
:100310000E18FE01ED54FE4F91838083FE01ED56D1
:10032000FE4F80E090E0A0E2B1E480839183A2835D
:10033000B3838E0101571E4FFE01ED56FE4F6081C3
:1003400071818281938120E030E04AE755E40E9488
:10035000FB2ADC01CB01F80180839183A283B38364
:10036000FE01E157FE4F608171818281938120E01F
:1003700030E040E85FE30E94012D882344F4FE0151
:10038000E357FE4F81E090E09183808364C0FE01DB
:10039000E157FE4F608171818281938120E03FEFC0
:1003A0004FE757E40E94A12C18160CF043C0FE0141
:1003B000ED56FE4F608171818281938120E030E0B3
:1003C00040E251E40E94FB2ADC01CB018E0103577D
:1003D0001E4FBC01CD010E942529DC01CB01F80193
:1003E000918380831FC0FE01E557FE4F80E991E0B5
:1003F00091838083FE01E557FE4F808191810197B3
:10040000F1F7FE01E557FE4F91838083DE01A3578C
:10041000BE4FFE01E357FE4F8081918101971196F7
:100420009C938E93FE01E357FE4F8081918100974C
:10043000D1F627C08E0103571E4FFE01E157FE4F34
:1004400060817181828193810E942529DC01CB0129
:10045000F80191838083DE01A757BE4FFE01E35769
:10046000FE4F808191818D939C93FE01E757FE4F53
:10047000808191810197F1F7FE01E757FE4F91834B
:10048000808384E090E065E070E00E940E18FE0139
:10049000EF54FE4F91838083FE01EB57FE4F80E0C7
:1004A00090E0A0E2B1E480839183A283B3838E01C4
:1004B0000F571E4FFE01EB57FE4F60817181828105
:1004C000938120E030E04AE755E40E94FB2ADC01FA
:1004D000CB01F80180839183A283B383FE01EF57A0
:1004E000FE4F608171818281938120E030E040E89D
:1004F0005FE30E94012D882344F4FE01E158FE4F82
:1005000081E090E09183808364C0FE01EF57FE4F4D
:10051000608171818281938120E03FEF4FE757E452
:100520000E94A12C18160CF043C0FE01EB57FE4FA1
:10053000608171818281938120E030E040E251E46A
:100540000E94FB2ADC01CB018E0101581E4FBC0129
:10055000CD010E942529DC01CB01F8019183808324
:100560001FC0FE01E358FE4F80E991E09183808334
:10057000FE01E358FE4F808191810197F1F7FE0162
:10058000E358FE4F91838083DE01A158BE4FFE01E8
:10059000E158FE4F80819181019711969C938E9333
:1005A000FE01E158FE4F808191810097D1F628C06D
:1005B0008E0101581E4FFE01EF57FE4F6081718181
:1005C000828193810E942529DC01CB01F80191836E
:1005D0008083DE01A558BE4FFE01E158FE4F8081A9
:1005E000918111969C938E93FE01E558FE4F808178
:1005F00091810197F1F7FE01E558FE4F91838083C9
:10060000FE01E354FE4F80819181009721F4EBE3DA
:10061000F0E080E88083E9E3F0E08081882314F44F
:100620000C94CA0CFE01E354FE4F80819181009727
:1006300011F00C94CA0CE2E2F0E081E08083E3E286
:10064000F0E01082E1E5F0E01082E8E3F0E08FED09
:100650008083FE01E755FE4F81E891E0918380831E
:100660000E946F21FE01E955FE4F91838083FE01B8
:10067000E958FE4F80E090E0A0E8BFE380839183DB
:10068000A283B3838E010D581E4FFE01E958FE4F21
:10069000608171818281938120E030E04AE755E4F6
:1006A0000E94FB2ADC01CB01F80180839183A283A5
:1006B000B383FE01ED58FE4F608171818281938189
:1006C00020E030E040E85FE30E94012D882344F4FD
:1006D000FE01EF58FE4F81E090E09183808364C07B
:1006E000FE01ED58FE4F608171818281938120E08F
:1006F0003FEF4FE757E40E94A12C18160CF043C0BF
:10070000FE01E958FE4F608171818281938120E072
:1007100030E040E251E40E94FB2ADC01CB018E0173
:100720000F581E4FBC01CD010E942529DC01CB01D1
:10073000F801918380831FC0FE01E159FE4F80E9DB
:1007400091E091838083FE01E159FE4F8081918188
:100750000197F1F7FE01E159FE4F91838083DE019D
:10076000AF58BE4FFE01EF58FE4F80819181019737
:1007700011969C938E93FE01EF58FE4F80819181DC
:100780000097D1F627C08E010F581E4FFE01ED587D
:10079000FE4F60817181828193810E942529DC0155
:1007A000CB01F80191838083DE01A359BE4FFE0186
:1007B000EF58FE4F808191818D939C93FE01E35908
:1007C000FE4F808191810197F1F7FE01E359FE4FC1
:1007D0009183808300D0EDB7FEB7319680E091E041
:1007E000918380830E94A32F0F900F90A8E4B0E024
:1007F000FE01E755FE4F8081918111969C938E9367
:10080000FE01E759FE4F80E090E0AAEFB3E4808359
:100810009183A283B3838E010B591E4FFE01E759CA
:10082000FE4F608171818281938120E030E04AE750
:1008300055E40E94FB2ADC01CB01F80180839183FF
:10084000A283B383FE01EB59FE4F608171818281E7
:10085000938120E030E040E85FE30E94012D88238F
:1008600044F4FE01ED59FE4F81E090E091838083D6
:1008700064C0FE01EB59FE4F6081718182819381DA
:1008800020E03FEF4FE757E40E94A12C18160CF030
:1008900043C0FE01E759FE4F6081718182819381DF
:1008A00020E030E040E251E40E94FB2ADC01CB0171
:1008B0008E010D591E4FBC01CD010E942529DC017E
:1008C000CB01F801918380831FC0FE01EF59FE4FD9
:1008D00080E991E091838083FE01EF59FE4F808192
:1008E00091810197F1F7FE01EF59FE4F91838083CB
:1008F000DE01AD59BE4FFE01ED59FE4F8081918161
:10090000019711969C938E93FE01ED59FE4F8081C5
:1009100091810097D1F628C08E010D591E4FFE011E
:10092000EB59FE4F60817181828193810E9425295C
:10093000DC01CB01F80191838083DE01A15ABE4F17
:10094000FE01ED59FE4F8081918111969C938E930B
:10095000FE01E15AFE4F808191810197F1F7FE017E
:10096000E15AFE4F91838083FE01E955FE4F80815D
:10097000918188379105B8F4DE01A755BE4FFE017D
:10098000E755FE4F80819181815490408D939C93D7
:10099000A8E4B0E0FE01E755FE4F808191811196F9
:1009A0009C938E9315C0FE01E755FE4F8081918187
:1009B0008639910568F0DE01A755BE4FFE01E75567
:1009C000FE4F80819181059711969C938E9348CE1E
:1009D000FE01E55AFE4F80E090E0AAEFB4E4808388
:1009E0009183A283B3838E01095A1E4FFE01E55AFB
:1009F000FE4F608171818281938120E030E04AE77F
:100A000055E40E94FB2ADC01CB01F801808391832D
:100A1000A283B383FE01E95AFE4F60817181828116
:100A2000938120E030E040E85FE30E94012D8823BD
:100A300044F4FE01EB5AFE4F81E090E09183808305
:100A400064C0FE01E95AFE4F608171818281938109
:100A500020E03FEF4FE757E40E94A12C18160CF05E
:100A600043C0FE01E55AFE4F60817181828193810E
:100A700020E030E040E251E40E94FB2ADC01CB019F
:100A80008E010B5A1E4FBC01CD010E942529DC01AD
:100A9000CB01F801918380831FC0FE01ED5AFE4F08
:100AA00080E991E091838083FE01ED5AFE4F8081C1
:100AB00091810197F1F7FE01ED5AFE4F91838083FA
:100AC000DE01AB5ABE4FFE01EB5AFE4F8081918191
:100AD000019711969C938E93FE01EB5AFE4F8081F5
:100AE00091810097D1F627C08E010B5A1E4FFE014F
:100AF000E95AFE4F60817181828193810E9425298C
:100B0000DC01CB01F80191838083DE01AF5ABE4F37
:100B1000FE01EB5AFE4F808191818D939C93FE01E3
:100B2000EF5AFE4F808191810197F1F7FE01EF5A54
:100B3000FE4F918380830E946F21FE01EB55FE4F93
:100B400091838083E3E4F0E088EC8083E8E3F0E0E5
:100B500081E8808300D000D0ADB7BEB7119680E1A8
:100B600091E011969C938E93FE01EB55FE4F808190
:100B7000918113969C938E9312970E94A32F0F90AE
:100B80000F900F900F90DE01AF53BE4FFE01EF5359
:100B9000FE4F8081918101968D939C93DE01A1543B
:100BA000BE4FFE01EF53FE4F8081918111969C93C1
:100BB0008E93FE01EB55FE4F808191818D32910520
:100BC00008F070C1FE01E35BFE4F80E090E8ABE30C
:100BD000B5E480839183A283B3838E01075B1E4FAC
:100BE000FE01E35BFE4F608171818281938120E091
:100BF00030E04AE755E40E94FB2ADC01CB01F80112
:100C000080839183A283B383FE01E75BFE4F608103
:100C100071818281938120E030E040E85FE30E94AF
:100C2000012D882344F4FE01E95BFE4F81E090E052
:100C30009183808364C0FE01E75BFE4F6081718118
:100C40008281938120E03FEF4FE757E40E94A12C7F
:100C500018160CF043C0FE01E35BFE4F608171810A
:100C60008281938120E030E040E251E40E94FB2A3F
:100C7000DC01CB018E01095B1E4FBC01CD010E943E
:100C80002529DC01CB01F801918380831FC0FE017F
:100C9000EB5BFE4F80E991E091838083FE01EB5B8B
:100CA000FE4F808191810197F1F7FE01EB5BFE4FD2
:100CB00091838083DE01A95BBE4FFE01E95BFE4F9D
:100CC00080819181019711969C938E93FE01E95B3F
:100CD000FE4F808191810097D1F627C08E01095B7C
:100CE0001E4FFE01E75BFE4F60817181828193811F
:100CF0000E942529DC01CB01F80191838083DE016C
:100D0000AD5BBE4FFE01E95BFE4F808191818D930B
:100D10009C93FE01ED5BFE4F808191810197F1F77D
:100D2000FE01ED5BFE4F91838083E8E3F0E08FED01
:100D30008083EBE3F0E081E08083FE01E15CFE4F25
:100D400080E090E4ACE9B5E480839183A283B3832F
:100D50008E01055C1E4FFE01E15CFE4F60817181DA
:100D60008281938120E030E04AE755E40E94FB2A2B
:100D7000DC01CB01F80180839183A283B383FE0160
:100D8000E55CFE4F608171818281938120E030E0DB
:100D900040E85FE30E94012D882344F4FE01E75CF4
:100DA000FE4F81E090E09183808364C0FE01E55CAA
:100DB000FE4F608171818281938120E03FEF4FE798
:100DC00057E40E94A12C18160CF043C0FE01E15C10
:100DD000FE4F608171818281938120E030E040E2AA
:100DE00051E40E94FB2ADC01CB018E01075C1E4FFF
:100DF000BC01CD010E942529DC01CB01F8019183C2
:100E000080831FC0FE01E95CFE4F80E991E0918381
:100E10008083FE01E95CFE4F808191810197F1F7AB
:100E2000FE01E95CFE4F91838083DE01A75CBE4F2B
:100E3000FE01E75CFE4F80819181019711969C93A2
:100E40008E93FE01E75CFE4F808191810097D1F681
:100E5000DEC08E01075C1E4FFE01E55CFE4F608127
:100E60007181828193810E942529DC01CB01F801E7
:100E700091838083DE01AB5CBE4FFE01E75CFE4FD9
:100E80008081918111969C938E93FE01EB5CFE4FC5
:100E9000808191810197F1F7FE01EB5CFE4F918318
:100EA0008083B5C0FE01EF5CFE4F80E090E0A0E8DB
:100EB000BFE380839183A283B3838E01035D1E4FC2
:100EC000FE01EF5CFE4F608171818281938120E0A1
:100ED00030E04AE755E40E94FB2ADC01CB01F8012F
:100EE00080839183A283B383FE01E35DFE4F608123
:100EF00071818281938120E030E040E85FE30E94CD
:100F0000012D882344F4FE01E55DFE4F81E090E071
:100F10009183808364C0FE01E35DFE4F6081718137
:100F20008281938120E03FEF4FE757E40E94A12C9C
:100F300018160CF043C0FE01EF5CFE4F608171811A
:100F40008281938120E030E040E251E40E94FB2A5C
:100F5000DC01CB018E01055D1E4FBC01CD010E945D
:100F60002529DC01CB01F801918380831FC0FE019C
:100F7000E75DFE4F80E991E091838083FE01E75DAC
:100F8000FE4F808191810197F1F7FE01E75DFE4FF1
:100F900091838083DE01A55DBE4FFE01E55DFE4FBE
:100FA00080819181019711969C938E93FE01E55D5E
:100FB000FE4F808191810097D1F6BDCD8E01055DF8
:100FC0001E4FFE01E35DFE4F60817181828193813E
:100FD0000E942529DC01CB01F80191838083DE0189
:100FE000A95DBE4FFE01E55DFE4F808191811196A6
:100FF0009C938E93FE01E95DFE4F80819181019764
:10100000F1F7FE01E95DFE4F9183808394CDE3E427
:10101000F0E088EC8083E8E3F0E082E8808300D0B1
:1010200000D0ADB7BEB7119681E291E011969C93C6
:101030008E93FE01E154FE4F8081918113969C9323
:101040008E9312970E94A32F0F900F900F900F90E6
:10105000DE01A154BE4FFE01E154FE4F808191811B
:10106000019711969C938E93FE01E154FE4F80816F
:101070009181009709F084C1FE01ED5DFE4F80E093
:1010800090E0AAE7B5E480839183A283B3838E01C5
:10109000015E1E4FFE01ED5DFE4F60817181828118
:1010A000938120E030E04AE755E40E94FB2ADC010E
:1010B000CB01F80180839183A283B383FE01E15EBB
:1010C000FE4F608171818281938120E030E040E8B1
:1010D0005FE30E94012D882344F4FE01E35EFE4F8E
:1010E00081E090E09183808364C0FE01E15EFE4F69
:1010F000608171818281938120E03FEF4FE757E467
:101100000E94A12C18160CF043C0FE01ED5DFE4FAD
:10111000608171818281938120E030E040E251E47E
:101120000E94FB2ADC01CB018E01035E1E4FBC0135
:10113000CD010E942529DC01CB01F8019183808338
:101140001FC0FE01E55EFE4F80E991E09183808340
:10115000FE01E55EFE4F808191810197F1F7FE016E
:10116000E55EFE4F91838083DE01A35EBE4FFE01EC
:10117000E35EFE4F80819181019711969C938E933F
:10118000FE01E35EFE4F808191810097D1F627C07A
:101190008E01035E1E4FFE01E15EFE4F6081718194
:1011A000828193810E942529DC01CB01F801918382
:1011B0008083DE01A75EBE4FFE01E35EFE4F8081AD
:1011C00091818D939C93FE01E75EFE4F808191811A
:1011D0000197F1F7FE01E75EFE4F91838083FE01E8
:1011E000EB5EFE4F80E090E0AAE7B5E48083918358
:1011F000A283B3838E010F5E1E4FFE01EB5EFE4F96
:10120000608171818281938120E030E04AE755E47A
:101210000E94FB2ADC01CB01F80180839183A28329
:10122000B383FE01EF5EFE4F608171818281938105
:1012300020E030E040E85FE30E94012D882344F481
:10124000FE01E15FFE4F81E090E09183808364C006
:10125000FE01EF5EFE4F608171818281938120E00B
:101260003FEF4FE757E40E94A12C18160CF043C043
:10127000FE01EB5EFE4F608171818281938120E0EF
:1012800030E040E251E40E94FB2ADC01CB018E01F8
:10129000015F1E4FBC01CD010E942529DC01CB015D
:1012A000F801918380831FC0FE01E35FFE4F80E958
:1012B00091E091838083FE01E35FFE4F8081918105
:1012C0000197F1F7FE01E35FFE4F91838083DE011A
:1012D000A15FBE4FFE01E15FFE4F808191810197CA
:1012E00011969C938E93FE01E15FFE4F8081918168
:1012F0000097D1F627C08E01015F1E4FFE01EF5E01
:10130000FE4F60817181828193810E942529DC01D9
:10131000CB01F80191838083DE01A55FBE4FFE0102
:10132000E15FFE4F808191818D939C93FE01E55F8B
:10133000FE4F808191810197F1F7FE01E55FFE4F3D
:1013400091838083E8E3F0E08FED808300D000D0CC
:10135000ADB7BEB711968EE291E011969C938E9335
:10136000FE01EF53FE4F8081918113969C938E93E3
:1013700012970E94A32F0F900F900F900F90B5C05F
:10138000FE01E95FFE4F80E090E0A0E2B1E48083DF
:101390009183A283B3838E010D5F1E4FFE01E95F2F
:1013A000FE4F608171818281938120E030E04AE7C5
:1013B00055E40E94FB2ADC01CB01F8018083918374
:1013C000A283B383FE01ED5FFE4F60817181828154
:1013D000938120E030E040E85FE30E94012D882304
:1013E00044F4FE01EF5FFE4F81E090E09183808343
:1013F00064C0FE01ED5FFE4F608171818281938147
:1014000020E03FEF4FE757E40E94A12C18160CF0A4
:1014100043C0FE01E95FFE4F60817181828193814B
:1014200020E030E040E251E40E94FB2ADC01CB01E5
:101430008E010F5F1E4FBC01CD010E942529DC01EA
:10144000CB01F801918380831FC0FE01E150FF4F63
:1014500080E991E091838083FE01E150FF4F80811C
:1014600091810197F1F7FE01E150FF4F9183808355
:10147000DE01AF5FBE4FFE01EF5FFE4F80819181C5
:10148000019711969C938E93FE01EF5FFE4F808132
:1014900091810097D1F6BBCD8E010F5F1E4FFE01EB
:1014A000ED5FFE4F60817181828193810E942529C9
:1014B000DC01CB01F80191838083DE01A350BF4F93
:1014C000FE01EF5FFE4F8081918111969C938E9378
:1014D000FE01E350FF4F808191810197F1F7FE01FA
:1014E000E350FF4F9183808392CDA8E4B0E0FE01EA
:1014F000E755FE4F8081918111969C938E93FE015A
:10150000E755FE4F80819181F1E082389F0708F016
:10151000C0C0DE01A755BE4FFE01E755FE4F8081DA
:10152000918105968D939C93FE01E750FF4F80E0DB
:1015300090E0AAEFB3E480839183A283B3838E010A
:101540000B501F4FFE01E750FF4F60817181828178
:10155000938120E030E04AE755E40E94FB2ADC0159
:10156000CB01F80180839183A283B383FE01EB500A
:10157000FF4F608171818281938120E030E040E8FB
:101580005FE30E94012D882344F4FE01ED50FF4FDC
:1015900081E090E09183808364C0FE01EB50FF4FB7
:1015A000608171818281938120E03FEF4FE757E4B2
:1015B0000E94A12C18160CF043C0FE01E750FF4F0B
:1015C000608171818281938120E030E040E251E4CA
:1015D0000E94FB2ADC01CB018E010D501F4FBC0184
:1015E000CD010E942529DC01CB01F8019183808384
:1015F0001FC0FE01EF50FF4F80E991E0918380838F
:10160000FE01EF50FF4F808191810197F1F7FE01BC
:10161000EF50FF4F91838083DE01AD50BF4FFE013D
:10162000ED50FF4F80819181019711969C938E938D
:10163000FE01ED50FF4F808191810097D1F655CF8B
:101640008E010D501F4FFE01EB50FF4F60817181E5
:10165000828193810E942529DC01CB01F8019183CD
:101660008083DE01A151BF4FFE01ED50FF4F80810D
:10167000918111969C938E93FE01E151FF4F8081E1
:1016800091810197F1F7FE01E151FF4F9183808332
:101690002CCFFE01E551FF4F80E090E0AAEFB4E4CB
:1016A00080839183A283B3838E0109511F4FFE0172
:1016B000E551FF4F608171818281938120E030E0AC
:1016C0004AE755E40E94FB2ADC01CB01F801808344
:1016D0009183A283B383FE01E951FF4F6081718141
:1016E0008281938120E030E040E85FE30E94012D99
:1016F000882344F4FE01EB51FF4F81E090E0918399
:10170000808364C0FE01E951FF4F60817181828155
:10171000938120E03FEF4FE757E40E94A12C181679
:101720000CF043C0FE01E551FF4F60817181828161
:10173000938120E030E040E251E40E94FB2ADC018A
:10174000CB018E010B511F4FBC01CD010E942529F9
:10175000DC01CB01F801918380831FC0FE01ED51B4
:10176000FF4F80E991E091838083FE01ED51FF4FAF
:10177000808191810197F1F7FE01ED51FF4F918337
:101780008083DE01AB51BF4FFE01EB51FF4F8081E3
:101790009181019711969C938E93FE01EB51FF4F1F
:1017A000808191810097D1F627C08E010B511F4F88
:1017B000FE01E951FF4F60817181828193810E9416
:1017C0002529DC01CB01F80191838083DE01AF5133
:1017D000BF4FFE01EB51FF4F808191818D939C9310
:1017E000FE01EF51FF4F808191810197F1F7FE01DA
:1017F000EF51FF4F91838083FE01E354FE4F81E060
:1018000090E091838083E8E3F0E080E38083E5E388
:10181000F0E080E88083E1E5F0E084E38083FE018E
:10182000E352FF4F80E090E0AAE7B4E48083918325
:10183000A283B3838E0107521F4FFE01E352FF4F75
:10184000608171818281938120E030E04AE755E434
:101850000E94FB2ADC01CB01F80180839183A283E3
:10186000B383FE01E752FF4F6081718182819381D2
:1018700020E030E040E85FE30E94012D882344F43B
:10188000FE01E952FF4F81E090E09183808364C0C4
:10189000FE01E752FF4F608171818281938120E0D8
:1018A0003FEF4FE757E40E94A12C18160CF043C0FD
:1018B000FE01E352FF4F608171818281938120E0BC
:1018C00030E040E251E40E94FB2ADC01CB018E01B2
:1018D00009521F4FBC01CD010E942529DC01CB011B
:1018E000F801918380831FC0FE01EB52FF4F80E916
:1018F00091E091838083FE01EB52FF4F80819181C3
:101900000197F1F7FE01EB52FF4F91838083DE01D7
:10191000A952BF4FFE01E952FF4F8081918101978B
:1019200011969C938E93FE01E952FF4F8081918125
:101930000097D1F628C08E0109521F4FFE01E752D1
:10194000FF4F60817181828193810E942529DC0192
:10195000CB01F80191838083DE01AD52BF4FFE01C0
:10196000E952FF4F8081918111969C938E93FE01E5
:10197000ED52FF4F808191810197F1F7FE01ED5209
:10198000FF4F91838083FE01E954FE4F81E090E098
:1019900091838083E9E3F0E0808188230CF422C7FF
:1019A000FE01E354FE4F808191818130910509F061
:1019B00019C7EAE3F0E081E08083EBE3F0E081E047
:1019C0008083E1E5F0E01082E8E3F0E08FED8083D2
:1019D000DE01A754BE4FFE01EF53FE4F808191817F
:1019E0008D939C93DE01A554BE4FFE01EF53FE4F35
:1019F000808191818D939C930E943820FE01E15358
:101A0000FF4F80E090E0AAEFB4E480839183A2834B
:101A1000B3838E0105531F4FFE01E153FF4F6081D9
:101A200071818281938120E030E04AE755E40E9491
:101A3000FB2ADC01CB01F80180839183A283B3836D
:101A4000FE01E553FF4F608171818281938120E027
:101A500030E040E85FE30E94012D882344F4FE015A
:101A6000E753FF4F81E090E09183808364C0FE01E3
:101A7000E553FF4F608171818281938120E03FEFC8
:101A80004FE757E40E94A12C18160CF043C0FE014A
:101A9000E153FF4F608171818281938120E030E0CA
:101AA00040E251E40E94FB2ADC01CB018E01075386
:101AB0001F4FBC01CD010E942529DC01CB01F8019B
:101AC000918380831FC0FE01E953FF4F80E991E0BD
:101AD00091838083FE01E953FF4F808191810197BB
:101AE000F1F7FE01E953FF4F91838083DE01A75395
:101AF000BF4FFE01E753FF4F8081918101971196FF
:101B00009C938E93FE01E753FF4F80819181009754
:101B1000D1F627C08E0107531F4FFE01E553FF4F3B
:101B200060817181828193810E942529DC01CB0132
:101B3000F80191838083DE01AB53BF4FFE01E75371
:101B4000FF4F808191818D939C93FE01EB53FF4F5A
:101B5000808191810197F1F7FE01EB53FF4F918353
:101B60008083E3E4F0E088EC8083E8E3F0E081E860
:101B7000808300D000D0ADB7BEB711968BE391E063
:101B800011969C938E93FE01E554FE4F80819181C6
:101B900013969C938E9312970E94A32F0F900F90F1
:101BA0000F900F90DE01A554BE4FFE01E554FE4F8D
:101BB00080819181019711969C938E93FE01E5544B
:101BC000FE4F80819181009709F06FC1FE01EF53B4
:101BD000FF4F80E090E8ABEBB5E480839183A28374
:101BE000B3838E0103541F4FFE01EF53FF4F6081FB
:101BF00071818281938120E030E04AE755E40E94C0
:101C0000FB2ADC01CB01F80180839183A283B3839B
:101C1000FE01E354FF4F608171818281938120E056
:101C200030E040E85FE30E94012D882344F4FE0188
:101C3000E554FF4F81E090E09183808364C0FE0112
:101C4000E354FF4F608171818281938120E03FEFF7
:101C50004FE757E40E94A12C18160CF043C0FE0178
:101C6000EF53FF4F608171818281938120E030E0EA
:101C700040E251E40E94FB2ADC01CB018E010554B5
:101C80001F4FBC01CD010E942529DC01CB01F801C9
:101C9000918380831FC0FE01E754FF4F80E991E0EC
:101CA00091838083FE01E754FF4F808191810197EA
:101CB000F1F7FE01E754FF4F91838083DE01A554C5
:101CC000BF4FFE01E554FF4F80819181019711962E
:101CD0009C938E93FE01E554FF4F80819181009784
:101CE000D1F627C08E0105541F4FFE01E354FF4F6C
:101CF00060817181828193810E942529DC01CB0161
:101D0000F80191838083DE01A954BF4FFE01E554A1
:101D1000FF4F808191818D939C93FE01E954FF4F89
:101D2000808191810197F1F7FE01E954FF4F918382
:101D30008083E8E3F0E08FED8083EBE3F0E0108256
:101D4000FE01ED54FF4F80E090E8ABE3B5E4808303
:101D50009183A283B3838E0101551F4FFE01ED5481
:101D6000FF4F608171818281938120E030E04AE7FA
:101D700055E40E94FB2ADC01CB01F80180839183AA
:101D8000A283B383FE01E155FF4F6081718182819F
:101D9000938120E030E040E85FE30E94012D88233A
:101DA00044F4FE01E355FF4F81E090E0918380838E
:101DB00064C0FE01E155FF4F608171818281938192
:101DC00020E03FEF4FE757E40E94A12C18160CF0DB
:101DD00043C0FE01ED54FF4F608171818281938188
:101DE00020E030E040E251E40E94FB2ADC01CB011C
:101DF0008E0103551F4FBC01CD010E942529DC0136
:101E0000CB01F801918380831FC0FE01E555FF4F90
:101E100080E991E091838083FE01E555FF4F808149
:101E200091810197F1F7FE01E555FF4F9183808382
:101E3000DE01A355BF4FFE01E355FF4F8081918125
:101E4000019711969C938E93FE01E355FF4F80817D
:101E500091810097D1F6DEC08E0103551F4FFE0120
:101E6000E155FF4F60817181828193810E94252914
:101E7000DC01CB01F80191838083DE01A755BF4FC0
:101E8000FE01E355FF4F8081918111969C938E93C3
:101E9000FE01E755FF4F808191810197F1F7FE0127
:101EA000E755FF4F91838083B5C0FE01EB55FF4F8F
:101EB00080E090E0A0E2B1E480839183A283B383C9
:101EC0008E010F551F4FFE01EB55FF4F6081718151
:101ED0008281938120E030E04AE755E40E94FB2AAA
:101EE000DC01CB01F80180839183A283B383FE01DF
:101EF000EF55FF4F608171818281938120E030E056
:101F000040E85FE30E94012D882344F4FE01E1567E
:101F1000FF4F81E090E09183808364C0FE01EF5524
:101F2000FF4F608171818281938120E03FEF4FE715
:101F300057E40E94A12C18160CF043C0FE01EB558B
:101F4000FF4F608171818281938120E030E040E227
:101F500051E40E94FB2ADC01CB018E0101561F4F88
:101F6000BC01CD010E942529DC01CB01F801918340
:101F700080831FC0FE01E356FF4F80E991E091830B
:101F80008083FE01E356FF4F808191810197F1F735
:101F9000FE01E356FF4F91838083DE01A156BF4FC0
:101FA000FE01E156FF4F80819181019711969C932C
:101FB0008E93FE01E156FF4F808191810097D1F60B
:101FC000D0CD8E0101561F4FFE01EF55FF4F6081AE
:101FD0007181828193810E942529DC01CB01F80166
:101FE00091838083DE01A556BF4FFE01E156FF4F6E
:101FF0008081918111969C938E93FE01E556FF4F4F
:10200000808191810197F1F7FE01E556FF4F9183A1
:102010008083A7CDE3E4F0E088EC8083E8E3F0E0A0
:1020200082E8808300D000D0ADB7BEB7119688E4B7
:1020300091E011969C938E93FE01E754FE4F8081B0
:10204000918113969C938E9312970E94A32F0F90C9
:102050000F900F900F90DE01A754BE4FFE01E75482
:10206000FE4F80819181019711969C938E93FE0182
:10207000E754FE4F80819181009709F0FEC2FE0176
:10208000E956FF4F80E090E4ACE9B5E480839183AA
:10209000A283B3838E010D561F4FFE01E956FF4FF9
:1020A000608171818281938120E030E04AE755E4CC
:1020B0000E94FB2ADC01CB01F80180839183A2837B
:1020C000B383FE01ED56FF4F608171818281938160
:1020D00020E030E040E85FE30E94012D882344F4D3
:1020E000FE01EF56FF4F81E090E09183808364C052
:1020F000FE01ED56FF4F608171818281938120E066
:102100003FEF4FE757E40E94A12C18160CF043C094
:10211000FE01E956FF4F608171818281938120E049
:1021200030E040E251E40E94FB2ADC01CB018E0149
:102130000F561F4FBC01CD010E942529DC01CB01A8
:10214000F801918380831FC0FE01E157FF4F80E9B2
:1021500091E091838083FE01E157FF4F808191815F
:102160000197F1F7FE01E157FF4F91838083DE0174
:10217000AF56BF4FFE01EF56FF4F8081918101970F
:1021800011969C938E93FE01EF56FF4F80819181B3
:102190000097D1F627C08E010F561F4FFE01ED5656
:1021A000FF4F60817181828193810E942529DC012A
:1021B000CB01F80191838083DE01A357BF4FFE015D
:1021C000EF56FF4F808191818D939C93FE01E357E1
:1021D000FF4F808191810197F1F7FE01E357FF4F97
:1021E00091838083FE01E757FF4F80E090E8ABE3E7
:1021F000B5E480839183A283B3838E010B571F4F75
:10220000FE01E757FF4F608171818281938120E059
:1022100030E04AE755E40E94FB2ADC01CB01F801DB
:1022200080839183A283B383FE01EB57FF4F6081CC
:1022300071818281938120E030E040E85FE30E9479
:10224000012D882344F4FE01ED57FF4F81E090E01B
:102250009183808364C0FE01EB57FF4F60817181E1
:102260008281938120E03FEF4FE757E40E94A12C49
:1022700018160CF043C0FE01E757FF4F60817181D3
:102280008281938120E030E040E251E40E94FB2A09
:10229000DC01CB018E010D571F4FBC01CD010E9407
:1022A0002529DC01CB01F801918380831FC0FE0149
:1022B000EF57FF4F80E991E091838083FE01EF5754
:1022C000FF4F808191810197F1F7FE01EF57FF4F9A
:1022D00091838083DE01AD57BF4FFE01ED57FF4F65
:1022E00080819181019711969C938E93FE01ED5709
:1022F000FF4F808191810097D1F627C08E010D5745
:102300001F4FFE01EB57FF4F6081718182819381E6
:102310000E942529DC01CB01F80191838083DE0135
:10232000A158BF4FFE01ED57FF4F808191818D93E2
:102330009C93FE01E158FF4F808191810197F1F755
:10234000FE01E158FF4F91838083E8E3F0E08FEDD9
:10235000808300D000D0ADB7BEB711968EE291E079
:1023600011969C938E93FE01EF53FE4F80819181D5
:1023700013969C938E9312970E94A32F0F900F9009
:102380000F900F900E94D320FE01E558FF4F80E090
:1023900090E0AAEFB4E480839183A283B3838E019B
:1023A00009581F4FFE01E558FF4F608171818281FE
:1023B000938120E030E04AE755E40E94FB2ADC01EB
:1023C000CB01F80180839183A283B383FE01E95896
:1023D000FF4F608171818281938120E030E040E88D
:1023E0005FE30E94012D882344F4FE01EB58FF4F68
:1023F00081E090E09183808364C0FE01E958FF4F43
:10240000608171818281938120E03FEF4FE757E443
:102410000E94A12C18160CF043C0FE01E558FF4F96
:10242000608171818281938120E030E040E251E45B
:102430000E94FB2ADC01CB018E010B581F4FBC010F
:10244000CD010E942529DC01CB01F8019183808315
:102450001FC0FE01ED58FF4F80E991E0918380831A
:10246000FE01ED58FF4F808191810197F1F7FE0148
:10247000ED58FF4F91838083DE01AB58BF4FFE01C3
:10248000EB58FF4F80819181019711969C938E9319
:10249000FE01EB58FF4F808191810097D1F627C054
:1024A0008E010B581F4FFE01E958FF4F608171816B
:1024B000828193810E942529DC01CB01F80191835F
:1024C0008083DE01AF58BF4FFE01EB58FF4F808184
:1024D00091818D939C93FE01EF58FF4F80819181F4
:1024E0000197F1F7FE01EF58FF4F91838083FE01C2
:1024F000E354FE4F11821082E8E3F0E080E3808332
:10250000E5E3F0E080E88083E1E5F0E084E38083C8
:10251000FE01E359FF4F80E090E0AAE7B4E4808336
:102520009183A283B3838E0107591F4FFE01E359A4
:10253000FF4F608171818281938120E030E04AE722
:1025400055E40E94FB2ADC01CB01F80180839183D2
:10255000A283B383FE01E759FF4F608171818281BD
:10256000938120E030E040E85FE30E94012D882362
:1025700044F4FE01E959FF4F81E090E091838083AC
:1025800064C0FE01E759FF4F6081718182819381B0
:1025900020E03FEF4FE757E40E94A12C18160CF003
:1025A00043C0FE01E359FF4F6081718182819381B5
:1025B00020E030E040E251E40E94FB2ADC01CB0144
:1025C0008E0109591F4FBC01CD010E942529DC0154
:1025D000CB01F801918380831FC0FE01EB59FF4FAF
:1025E00080E991E091838083FE01EB59FF4F808168
:1025F00091810197F1F7FE01EB59FF4F91838083A1
:10260000DE01A959BF4FFE01E959FF4F8081918139
:10261000019711969C938E93FE01E959FF4F80819B
:1026200091810097D1F6DEC08E0109591F4FFE013E
:10263000E759FF4F60817181828193810E94252932
:10264000DC01CB01F80191838083DE01AD59BF4FDE
:10265000FE01E959FF4F8081918111969C938E93E1
:10266000FE01ED59FF4F808191810197F1F7FE0145
:10267000ED59FF4F91838083B5C0FE01E15AFF4FB2
:1026800080E090E0A0E2B1E480839183A283B383F1
:102690008E01055A1F4FFE01E15AFF4F6081718183
:1026A0008281938120E030E04AE755E40E94FB2AD2
:1026B000DC01CB01F80180839183A283B383FE0107
:1026C000E55AFF4F608171818281938120E030E083
:1026D00040E85FE30E94012D882344F4FE01E75A9D
:1026E000FF4F81E090E09183808364C0FE01E55A52
:1026F000FF4F608171818281938120E03FEF4FE73E
:1027000057E40E94A12C18160CF043C0FE01E15AB8
:10271000FF4F608171818281938120E030E040E24F
:1027200051E40E94FB2ADC01CB018E01075A1F4FA6
:10273000BC01CD010E942529DC01CB01F801918368
:1027400080831FC0FE01E95AFF4F80E991E0918329
:102750008083FE01E95AFF4F808191810197F1F753
:10276000FE01E95AFF4F91838083DE01A75ABF4FD4
:10277000FE01E75AFF4F80819181019711969C934A
:102780008E93FE01E75AFF4F808191810097D1F629
:1027900041CC8E01075A1F4FFE01E55AFF4F608161
:1027A0007181828193810E942529DC01CB01F8018E
:1027B00091838083DE01AB5ABF4FFE01E75AFF4F82
:1027C0008081918111969C938E93FE01EB5AFF4F6D
:1027D000808191810197F1F7FE01EB5AFF4F9183C0
:1027E000808318CCE9E3F0E08081882F90E080744A
:1027F0009070009709F4D4C0E9E3F0E08081882F5D
:1028000090E080729070009709F0CAC0E8E3F0E0B1
:1028100080E38083E5E3F0E080E88083EAE4F0E0B1
:1028200087E291E091838083A1E5B0E0FE01E3556A
:10283000FE4F80818D5D8C93FE01EF5AFF4F80E04B
:1028400090E0A8ECB2E480839183A283B3838E01ED
:10285000035B1F4FFE01EF5AFF4F60817181828140
:10286000938120E030E04AE755E40E94FB2ADC0136
:10287000CB01F80180839183A283B383FE01E35BE4
:10288000FF4F608171818281938120E030E040E8D8
:102890005FE30E94012D882344F4FE01E55BFF4FB6
:1028A00081E090E09183808364C0FE01E35BFF4F91
:1028B000608171818281938120E03FEF4FE757E48F
:1028C0000E94A12C18160CF043C0FE01EF5AFF4FD6
:1028D000608171818281938120E030E040E251E4A7
:1028E0000E94FB2ADC01CB018E01055B1F4FBC015E
:1028F000CD010E942529DC01CB01F8019183808361
:102900001FC0FE01E75BFF4F80E991E09183808368
:10291000FE01E75BFF4F808191810197F1F7FE0196
:10292000E75BFF4F91838083DE01A55BBF4FFE0114
:10293000E55BFF4F80819181019711969C938E9367
:10294000FE01E55BFF4F808191810097D1F628C0A1
:102950008E01055B1F4FFE01E35BFF4F60817181BC
:10296000828193810E942529DC01CB01F8019183AA
:102970008083DE01A95BBF4FFE01E55BFF4F8081D5
:10298000918111969C938E93FE01E95BFF4F8081AC
:1029900091810197F1F7FE01E95BFF4F91838083FD
:1029A000E9E3F0E08081882F90E0807290700097DA
:1029B00009F4A5C0E9E3F0E08081882F90E08074FD
:1029C0009070009709F09BC0E8E3F0E080E380831B
:1029D000E5E3F0E080E88083EAE4F0E088EB91E072
:1029E00091838083A1E5B0E0FE01E355FE4F808135
:1029F0008D5D8C93FE01ED5BFF4F80E090E0A8ECD5
:102A0000B2E480839183A283B3838E01015C1F4F64
:102A1000FE01ED5BFF4F608171818281938120E037
:102A200030E04AE755E40E94FB2ADC01CB01F801C3
:102A300080839183A283B383FE01FF9660817181BD
:102A40008281938120E030E040E85FE30E94012D25
:102A500088232CF481E090E09EAF8DAF46C0FE014C
:102A6000FF96608171818281938120E03FEF4FE783
:102A700057E40E94A12C181664F5FE01ED5BFF4F90
:102A8000608171818281938120E030E040E251E4F5
:102A90000E94FB2ADC01CB01BC01CD010E9425294B
:102AA000DC01CB019EAF8DAF0FC080E991E09CAF00
:102AB0008BAF8BAD9CAD0197F1F79CAF8BAF8DAD1C
:102AC0009EAD01979EAF8DAF8DAD9EAD009769F71E
:102AD00016C0FE01FF9660817181828193810E9400
:102AE0002529DC01CB019EAF8DAF8DAD9EAD9AAF98
:102AF00089AF89AD9AAD0197F1F79AAF89AFFE0121
:102B0000EB54FE4F80819181F1E08C329F0708F0F9
:102B10005FC1E9E3F0E08081882F90E080749070DD
:102B2000009709F455C1E9E3F0E08081882F90E037
:102B300080729070009709F44BC182E090E063E0EE
:102B400070E00E940E18FE01ED54FE4F91838083C9
:102B500084E090E065E070E00E940E18FE01EF5402
:102B6000FE4F91838083FE01ED54FE4FDE01AF5492
:102B7000BE4F208131818D919C91119782179307CF
:102B800008F08BC0E8E3F0E080E38083E5E3F0E069
:102B900080E88083EAE4F0E087E291E0918380833B
:102BA000A1E5B0E0FE01E355FE4F8081885D8C9386
:102BB00080E090E0A8ECB2E48DAB9EABAFABB8AFD9
:102BC0006DA97EA98FA998AD20E030E04AE755E4D1
:102BD0000E94FB2ADC01CB0189AB9AABABABBCAB4F
:102BE00069A97AA98BA99CA920E030E040E85FE3BD
:102BF0000E94012D88232CF481E090E098AB8FA7F0
:102C000040C069A97AA98BA99CA920E03FEF4FE7B2
:102C100057E40E94A12C181654F56DA97EA98FA91E
:102C200098AD20E030E040E251E40E94FB2ADC0154
:102C3000CB01BC01CD010E942529DC01CB0198AB61
:102C40008FA70FC080E991E09EA78DA78DA59EA5B7
:102C50000197F1F79EA78DA78FA598A9019798AB2B
:102C60008FA78FA598A9009769F70C94A90069A967
:102C70007AA98BA99CA90E942529DC01CB0198ABDC
:102C80008FA78FA598A99CA78BA78BA59CA501971B
:102C9000F1F79CA78BA70C94A900FE01ED54FE4F01
:102CA000DE01AF54BE4F208131818D919C911197EF
:102CB0002817390710F00C94A900E8E3F0E080E34E
:102CC0008083E5E3F0E080E88083EAE4F0E082ECF2
:102CD00091E091838083A1E5B0E0FE01E355FE4FD2
:102CE0008081885D8C9380E090E0A8ECB2E48FA3B3
:102CF00098A7A9A7BAA76FA178A589A59AA520E04A
:102D000030E04AE755E40E94FB2ADC01CB018BA3AB
:102D10009CA3ADA3BEA36BA17CA18DA19EA120E02D
:102D200030E040E85FE30E94012D88232CF481E02D
:102D300090E09AA389A340C06BA17CA18DA19EA124
:102D400020E03FEF4FE757E40E94A12C181654F5FE
:102D50006FA178A589A59AA520E030E040E251E472
:102D60000E94FB2ADC01CB01BC01CD010E94252978
:102D7000DC01CB019AA389A30FC080E991E098A35D
:102D80008F8F8F8D98A10197F1F798A38F8F89A1CD
:102D90009AA101979AA389A389A19AA1009769F79B
:102DA0000C94A9006BA17CA18DA19EA10E94252954
:102DB000DC01CB019AA389A389A19AA19E8F8D8F53
:102DC0008D8D9E8D0197F1F79E8F8D8F0C94A900AC
:102DD000FE01EF54FE4F808191818A3F910508F0FA
:102DE00088C0E8E3F0E080E38083E5E3F0E080E89A
:102DF0008083EAE4F0E082E291E091838083A1E5C0
:102E0000B0E0FE01E355FE4F8081895C8C9380E049
:102E100090E0A8ECB2E4898F9A8FAB8FBC8F698D5C
:102E20007A8D8B8D9C8D20E030E04AE755E40E943E
:102E3000FB2ADC01CB018D8B9E8BAF8BB88F6D890C
:102E40007E898F89988D20E030E040E85FE30E9422
:102E5000012D88232CF481E090E09C8B8B8B3FC06C
:102E60006D897E898F89988D20E03FEF4FE757E489
:102E70000E94A12C18164CF5698D7A8D8B8D9C8D36
:102E800020E030E040E251E40E94FB2ADC01CB016B
:102E9000BC01CD010E942529DC01CB019C8B8B8BD1
:102EA0000FC080E991E09A8B898B89899A89019773
:102EB000F1F79A8B898B8B899C8901979C8B8B8BE3
:102EC0008B899C89009769F714C06D897E898F89E9
:102ED000988D0E942529DC01CB019C8B8B8B8B89E3
:102EE0009C89988B8F878F8598890197F1F7988BAC
:102EF0008F87FE01ED54FE4F808191818A3F9105BD
:102F000010F00C94A900E8E3F0E080E38083E5E3AF
:102F1000F0E080E88083EAE4F0E08DEB91E09183DB
:102F20008083A1E5B0E0FE01E355FE4F8081895C1E
:102F30008C9380E090E0A8ECB2E48B879C87AD870F
:102F4000BE876B857C858D859E8520E030E04AE7D5
:102F500055E40E94FB2ADC01CB018F839887A98767
:102F6000BA876F81788589859A8520E030E040E8CE
:102F70005FE30E94012D88232CF481E090E09E8382
:102F80008D8340C06F81788589859A8520E03FEFE9
:102F90004FE757E40E94A12C181654F56B857C85E9
:102FA0008D859E8520E030E040E251E40E94FB2ABE
:102FB000DC01CB01BC01CD010E942529DC01CB0144
:102FC0009E838D830FC080E991E09C838B838B81EE
:102FD0009C810197F1F79C838B838D819E81019762
:102FE0009E838D838D819E81009769F70C94A90043
:102FF0006F81788589859A850E942529DC01CB011E
:103000009E838D838D819E819A83898389819A8114
:103010000197F1F79A8389830C94A900DF93CF93EA
:10302000CDB7DEB7E4970FB6F894DEBF0FBECDBFC5
:103030009AAB89AB7CAB6BABEAE8F0E083E08083D2
:10304000A2E3B0E0E2E3F0E08081282F81E090E0AD
:1030500009A802C0880F991F0A94E2F7809582237D
:103060008C9380E090E0A0E2B1E48DA79EA7AFA78B
:10307000B8AB6DA57EA58FA598A92BEA3AEA4AEAD6
:1030800050E40E94FB2ADC01CB0189A79AA7ABA7D9
:10309000BCA769A57AA58BA59CA520E030E040E8F7
:1030A0005FE30E94012D88231CF481E088A791C072
:1030B00069A57AA58BA59CA520E030E04FE753E4F5
:1030C0000E94A12C18160CF07BC06DA57EA58FA5C3
:1030D00098A920E030E04AE754E40E94F52BDC0197
:1030E000CB018CA39DA3AEA3BFA36CA17DA18EA198
:1030F0009FA120E030E04AE755E40E94FB2ADC0172
:10310000CB0188A399A3AAA3BBA368A179A18AA193
:103110009BA120E030E040E85FE30E94012D88237E
:103120002CF481E090E09F8F8E8F3FC068A179A141
:103130008AA19BA120E03FEF4FE757E40E94A12C1A
:1031400018164CF56CA17DA18EA19FA120E030E066
:1031500040E251E40E94FB2ADC01CB01BC01CD011D
:103160000E942529DC01CB019F8F8E8F0FC080E943
:1031700091E09D8F8C8F8C8D9D8D0197F1F79D8FA8
:103180008C8F8E8D9F8D01979F8F8E8F8E8D9F8DB3
:10319000009769F724C068A179A18AA19BA10E9428
:1031A0002529DC01CB019F8F8E8F8E8D9F8D9B8F6C
:1031B0008A8F8A8D9B8D0197F1F79B8F8A8F0FC025
:1031C00069A57AA58BA59CA50E942529DC01CB01C8
:1031D00088A788A5898F898D8A95F1F7898FA2E3C1
:1031E000B0E0E2E3F0E08081282F81E090E009A8E0
:1031F00002C0880F991F0A94E2F7822B8C9380E01B
:1032000090E0A0E2B1E48D8B9E8BAF8BB88F6D897F
:103210007E898F89988D2BEA3AEA4AEA50E40E9427
:10322000FB2ADC01CB01898B9A8BAB8BBC8B698928
:103230007A898B899C8920E030E040E85FE30E9436
:10324000012D88231CF481E0888B91C069897A89DB
:103250008B899C8920E030E04FE753E40E94A12C49
:1032600018160CF07BC06D897E898F89988D20E0BF
:1032700030E04AE754E40E94F52BDC01CB018C8757
:103280009D87AE87BF876C857D858E859F8520E075
:1032900030E04AE755E40E94FB2ADC01CB01888735
:1032A0009987AA87BB87688579858A859B8520E071
:1032B00030E040E85FE30E94012D88232CF481E098
:1032C00090E09F838E833FC0688579858A859B8542
:1032D00020E03FEF4FE757E40E94A12C18164CF571
:1032E0006C857D858E859F8520E030E040E251E44D
:1032F0000E94FB2ADC01CB01BC01CD010E942529E3
:10330000DC01CB019F838E830FC080E991E09D8318
:103310008C838C819D810197F1F79D838C838E81B5
:103320009F8101979F838E838E819F81009769F78C
:1033300024C0688579858A859B850E942529DC01C2
:10334000CB019F838E838E819F819B838A838A8119
:103350009B810197F1F79B838A830FC069897A89E2
:103360008B899C890E942529DC01CB01888B888967
:10337000898389818A95F1F78983A2E3B0E0E2E34A
:10338000F0E08081282F81E090E009A802C0880F3A
:10339000991F0A94E2F7809582238C93E0E3F0E092
:1033A0008081882F90E00BA802C0959587950A949C
:1033B000E2F781709070009789F3E8E8F0E01182FD
:1033C0001082E0E3F0E08081882F90E00BA802C03B
:1033D000959587950A94E2F781709070882389F714
:1033E000EAE8F0E01082E8E8F0E080819181880F5F
:1033F000991F880F991F96958795CC01A0E0B0E0A2
:1034000024E531E040E050E0BC01CD010E942B2FCB
:10341000DC01CB0128EE33E040E050E0BC01CD01FF
:103420000E944A2FDA01C901E4960FB6F894DEBF74
:103430000FBECDBFCF91DF910895DF93CF93CDB76E
:10344000DEB7E4970FB6F894DEBF0FBECDBF9AABE0
:1034500089AB7CAB6BABEAE8F0E083E08083A2E66B
:10346000B0E0E2E6F0E08081282F81E090E009A85A
:1034700002C0880F991F0A94E2F7809582238C93EB
:1034800080E090E0A0E2B1E48DA79EA7AFA7B8AB23
:103490006DA57EA58FA598A92BEA3AEA4AEA50E4E1
:1034A0000E94FB2ADC01CB0189A79AA7ABA7BCA786
:1034B00069A57AA58BA59CA520E030E040E85FE3F4
:1034C0000E94012D88231CF481E088A791C069A582
:1034D0007AA58BA59CA520E030E04FE753E40E943D
:1034E000A12C18160CF07BC06DA57EA58FA598A900
:1034F00020E030E04AE754E40E94F52BDC01CB01E8
:103500008CA39DA3AEA3BFA36CA17DA18EA19FA1FF
:1035100020E030E04AE755E40E94FB2ADC01CB01C1
:1035200088A399A3AAA3BBA368A179A18AA19BA1FF
:1035300020E030E040E85FE30E94012D88232CF476
:1035400081E090E09F8F8E8F3FC068A179A18AA112
:103550009BA120E03FEF4FE757E40E94A12C1816F3
:103560004CF56CA17DA18EA19FA120E030E040E24E
:1035700051E40E94FB2ADC01CB01BC01CD010E9479
:103580002529DC01CB019F8F8E8F0FC080E991E050
:103590009D8F8C8F8C8D9D8D0197F1F79D8F8C8FDA
:1035A0008E8D9F8D01979F8F8E8F8E8D9F8D009713
:1035B00069F724C068A179A18AA19BA10E9425294D
:1035C000DC01CB019F8F8E8F8E8D9F8D9B8F8A8F7D
:1035D0008A8D9B8D0197F1F79B8F8A8F0FC069A50C
:1035E0007AA58BA59CA50E942529DC01CB0188A783
:1035F00088A5898F898D8A95F1F7898FA2E6B0E039
:10360000E2E6F0E08081282F81E090E009A802C086
:10361000880F991F0A94E2F7822B8C9380E090E048
:10362000A0E2B1E48D8B9E8BAF8BB88F6D897E89C4
:103630008F89988D2BEA3AEA4AEA50E40E94FB2AE5
:10364000DC01CB01898B9A8BAB8BBC8B69897A8926
:103650008B899C8920E030E040E85FE30E94012DE7
:1036600088231CF481E0888B91C069897A898B89D1
:103670009C8920E030E04FE753E40E94A12C18160B
:103680000CF07BC06D897E898F89988D20E030E0B9
:103690004AE754E40E94F52BDC01CB018C879D871F
:1036A000AE87BF876C857D858E859F8520E030E065
:1036B0004AE755E40E94FB2ADC01CB018887998701
:1036C000AA87BB87688579858A859B8520E030E05D
:1036D00040E85FE30E94012D88232CF481E090E014
:1036E0009F838E833FC0688579858A859B8520E08E
:1036F0003FEF4FE757E40E94A12C18164CF56C855C
:103700007D858E859F8520E030E040E251E40E9477
:10371000FB2ADC01CB01BC01CD010E942529DC0183
:10372000CB019F838E830FC080E991E09D838C83C2
:103730008C819D810197F1F79D838C838E819F8180
:1037400001979F838E838E819F81009769F724C0A4
:10375000688579858A859B850E942529DC01CB01B6
:103760009F838E838E819F819B838A838A819B81A5
:103770000197F1F79B838A830FC069897A898B89C6
:103780009C890E942529DC01CB01888B888989834B
:1037900089818A95F1F78983A2E6B0E0E2E6F0E05C
:1037A0008081282F81E090E009A802C0880F991F2E
:1037B0000A94E2F7809582238C93E0E2F0E0808126
:1037C000882F90E00BA802C0959587950A94E2F7A0
:1037D00081709070009789F3E8E8F0E01182108220
:1037E000E0E2F0E08081882F90E00BA802C0959580
:1037F00087950A94E2F781709070882389F7EAE848
:10380000F0E01082E8E8F0E080819181880F991F54
:10381000880F991F96958795CC01A0E0B0E024E52C
:1038200031E040E050E0BC01CD010E942B2FDC01D3
:10383000CB0128EE33E040E050E0BC01CD010E9416
:103840004A2FDA01C901E4960FB6F894DEBF0FBE25
:10385000CDBFCF91DF910895DF93CF93CDB7DEB782
:10386000E7E3F0E08BEF8083E8E3F0E08BE980832F
:10387000E4E3F0E080E88083E5E3F0E080E8808343
:10388000E5E4F0E08CE68083E3E5F0E08FE680831A
:10389000E3E4F0E01082E1E5F0E01082CF91DF9107
:1038A0000895DF93CF93CDB7DEB76C970FB6F8943A
:1038B000DEBF0FBECDBFE8E3F0E082E8808380E0AA
:1038C00090E0AAE7B4E4898F9A8FAB8FBC8F698DA3
:1038D0007A8D8B8D9C8D20E030E04AE755E40E9484
:1038E000FB2ADC01CB018D8B9E8BAF8BB88F6D8952
:1038F0007E898F89988D20E030E040E85FE30E9468
:10390000012D88232CF481E090E09C8B8B8B3FC0B1
:103910006D897E898F89988D20E03FEF4FE757E4CE
:103920000E94A12C18164CF5698D7A8D8B8D9C8D7B
:1039300020E030E040E251E40E94FB2ADC01CB01B0
:10394000BC01CD010E942529DC01CB019C8B8B8B16
:103950000FC080E991E09A8B898B89899A890197B8
:10396000F1F79A8B898B8B899C8901979C8B8B8B28
:103970008B899C89009769F714C06D897E898F892E
:10398000988D0E942529DC01CB019C8B8B8B8B8928
:103990009C89988B8F878F8598890197F1F7988BF1
:1039A0008F87E8E3F0E081E9808380E090E0AAE798
:1039B000B4E48B879C87AD87BE876B857C858D85BE
:1039C0009E8520E030E04AE755E40E94FB2ADC01B6
:1039D000CB018F839887A987BA876F81788589857E
:1039E0009A8520E030E040E85FE30E94012D8823C3
:1039F0002CF481E090E09E838D833FC06F817885B9
:103A000089859A8520E03FEF4FE757E40E94A12C7B
:103A100018164CF56B857C858D859E8520E030E001
:103A200040E251E40E94FB2ADC01CB01BC01CD0144
:103A30000E942529DC01CB019E838D830FC080E984
:103A400091E09C838B838B819C810197F1F79C8310
:103A50008B838D819E8101979E838D838D819E8135
:103A6000009769F714C06F81788589859A850E94CF
:103A70002529DC01CB019E838D838D819E819A83D4
:103A8000898389819A810197F1F79A8389836C965A
:103A90000FB6F894DEBF0FBECDBFCF91DF91089572
:103AA000DF93CF93CDB7DEB76C970FB6F894DEBF38
:103AB0000FBECDBFE8E3F0E084E1808380E090E0DA
:103AC000AAE7B4E4898F9A8FAB8FBC8F698D7A8D0A
:103AD0008B8D9C8D20E030E04AE755E40E94FB2A64
:103AE000DC01CB018D8B9E8BAF8BB88F6D897E896E
:103AF0008F89988D20E030E040E85FE30E94012D3F
:103B000088232CF481E090E09C8B8B8B3FC06D89E7
:103B10007E898F89988D20E03FEF4FE757E40E9420
:103B2000A12C18164CF5698D7A8D8B8D9C8D20E01B
:103B300030E040E251E40E94FB2ADC01CB01BC01F1
:103B4000CD010E942529DC01CB019C8B8B8B0FC002
:103B500080E991E09A8B898B89899A890197F1F79D
:103B60009A8B898B8B899C8901979C8B8B8B8B89FA
:103B70009C89009769F714C06D897E898F89988D1B
:103B80000E942529DC01CB019C8B8B8B8B899C8926
:103B9000988B8F878F8598890197F1F7988B8F87FE
:103BA000E8E3F0E088E1808380E090E0AAE7B4E415
:103BB0008B879C87AD87BE876B857C858D859E8531
:103BC00020E030E04AE755E40E94FB2ADC01CB010B
:103BD0008F839887A987BA876F81788589859A8529
:103BE00020E030E040E85FE30E94012D88232CF4C0
:103BF00081E090E09E838D833FC06F8178858985C9
:103C00009A8520E03FEF4FE757E40E94A12C181659
:103C10004CF56B857C858D859E8520E030E040E20B
:103C200051E40E94FB2ADC01CB01BC01CD010E94C2
:103C30002529DC01CB019E838D830FC080E991E0B3
:103C40009C838B838B819C810197F1F79C838B8371
:103C50008D819E8101979E838D838D819E810097AA
:103C600069F714C06F81788589859A850E94252916
:103C7000DC01CB019E838D838D819E819A83898314
:103C800089819A810197F1F79A8389836C960FB69F
:103C9000F894DEBF0FBECDBFCF91DF910895DF93C3
:103CA000CF93CDB7DEB7EFE4F0E082EA8083EEE4B5
:103CB000F0E08BE18083E6E4F0E087E893E1918334
:103CC0008083EAE4F0E081E891E091838083E8E496
:103CD000F0E081E891E091838083CF91DF910895B6
:103CE000DF93CF93CDB7DEB7A0970FB6F894DEBFC2
:103CF0000FBECDBF0E9402280E946F2198A38F8F14
:103D000080E090E0A0E8BFE3898F9A8FAB8FBC8FF3
:103D1000698D7A8D8B8D9C8D20E030E04AE755E4EB
:103D20000E94FB2ADC01CB018D8B9E8BAF8BB88F61
:103D30006D897E898F89988D20E030E040E85FE3CF
:103D40000E94012D88232CF481E090E09C8B8B8BCA
:103D50003FC06D897E898F89988D20E03FEF4FE7C6
:103D600057E40E94A12C18164CF5698D7A8D8B8D25
:103D70009C8D20E030E040E251E40E94FB2ADC010F
:103D8000CB01BC01CD010E942529DC01CB019C8B1C
:103D90008B8B0FC080E991E09A8B898B89899A89F6
:103DA0000197F1F79A8B898B8B899C8901979C8B62
:103DB0008B8B8B899C89009769F714C06D897E89EC
:103DC0008F89988D0E942529DC01CB019C8B8B8BE0
:103DD0008B899C89988B8F878F8598890197F1F7BC
:103DE000988B8F8787E791E09E8F8D8F00D0EDB7FE
:103DF000FEB7319685E591E0918380830E94A32FE1
:103E00000F900F90E8E4F0E08D8D9E8D918380837C
:103E100080E090E0AAEFB3E48B879C87AD87BE87F4
:103E20006B857C858D859E8520E030E04AE755E4F2
:103E30000E94FB2ADC01CB018F839887A987BA8770
:103E40006F81788589859A8520E030E040E85FE3DE
:103E50000E94012D88232CF481E090E09E838D83C5
:103E60003FC06F81788589859A8520E03FEF4FE7D5
:103E700057E40E94A12C18164CF56B857C858D8526
:103E80009E8520E030E040E251E40E94FB2ADC0104
:103E9000CB01BC01CD010E942529DC01CB019E8311
:103EA0008D830FC080E991E09C838B838B819C8103
:103EB0000197F1F79C838B838D819E8101979E836F
:103EC0008D838D819E81009769F714C06F817885FD
:103ED00089859A850E942529DC01CB019E838D83EB
:103EE0008D819E819A83898389819A810197F1F7D7
:103EF0009A8389838F8D98A124E0803B920760F498
:103F00008D8D9E8D44979E8F8D8FE8E4F0E08D8D92
:103F10009E8D918380830BC08D8D9E8D86399105FA
:103F200030F08D8D9E8D05979E8F8D8F5FCFA096E3
:103F30000FB6F894DEBF0FBECDBFCF91DF910895CD
:103F4000DF93CF93CDB7DEB760970FB6F894DEBF9F
:103F50000FBECDBFE8E4F0E08F8598899183808320
:103F60008F85988921E08837920708F078C08F857F
:103F700098890596988B8F8780E090E0AAEFB3E44C
:103F80008B879C87AD87BE876B857C858D859E855D
:103F900020E030E04AE755E40E94FB2ADC01CB0137
:103FA0008F839887A987BA876F81788589859A8555
:103FB00020E030E040E85FE30E94012D88232CF4EC
:103FC00081E090E09E838D833FC06F8178858985F5
:103FD0009A8520E03FEF4FE757E40E94A12C181686
:103FE0004CF56B857C858D859E8520E030E040E238
:103FF00051E40E94FB2ADC01CB01BC01CD010E94EF
:104000002529DC01CB019E838D830FC080E991E0DF
:104010009C838B838B819C810197F1F79C838B839D
:104020008D819E8101979E838D838D819E810097D6
:1040300069F790CF6F81788589859A850E942529B7
:10404000DC01CB019E838D838D819E819A83898340
:1040500089819A810197F1F79A8389837BCF609652
:104060000FB6F894DEBF0FBECDBFCF91DF9108959C
:10407000DF93CF93CDB7DEB760970FB6F894DEBF6E
:104080000FBECDBF81E891E0988B8F87E8E4F0E028
:104090008F859889918380838F859889803A91054F
:1040A00008F478C08F8598890597988B8F8780E072
:1040B00090E0AAEFB3E48B879C87AD87BE876B85C2
:1040C0007C858D859E8520E030E04AE755E40E949E
:1040D000FB2ADC01CB018F839887A987BA876F8180
:1040E000788589859A8520E030E040E85FE30E948A
:1040F000012D88232CF481E090E09E838D833FC0C6
:104100006F81788589859A8520E03FEF4FE757E4F6
:104110000E94A12C18164CF56B857C858D859E859B
:1041200020E030E040E251E40E94FB2ADC01CB01B8
:10413000BC01CD010E942529DC01CB019E838D832A
:104140000FC080E991E09C838B838B819C810197D8
:10415000F1F79C838B838D819E8101979E838D8354
:104160008D819E81009769F791CF6F8178858985D0
:104170009A850E942529DC01CB019E838D838D8148
:104180009E819A83898389819A810197F1F79A8325
:1041900089837CCF60960FB6F894DEBF0FBECDBF8B
:1041A000CF91DF910895DF93CF93CDB7DEB76097BE
:1041B0000FB6F894DEBF0FBECDBF80EA90E0988BBB
:1041C0008F87E8E4F0E08F859889918380838F85DD
:1041D000988921E08238920708F078C08F85988905
:1041E0000F96988B8F8780E090E0AAEFB3E48B87DF
:1041F0009C87AD87BE876B857C858D859E8520E0FD
:1042000030E04AE755E40E94FB2ADC01CB018F83B2
:104210009887A987BA876F81788589859A8520E0F4
:1042200030E040E85FE30E94012D88232CF481E018
:1042300090E09E838D833FC06F81788589859A85C4
:1042400020E03FEF4FE757E40E94A12C18164CF5F1
:104250006B857C858D859E8520E030E040E251E4D1
:104260000E94FB2ADC01CB01BC01CD010E94252963
:10427000DC01CB019E838D830FC080E991E09C839C
:104280008B838B819C810197F1F79C838B838D813C
:104290009E8101979E838D838D819E81009769F712
:1042A00090CF6F81788589859A850E942529DC01C8
:1042B000CB019E838D838D819E819A8389838981A1
:1042C0009A810197F1F79A8389837BCF60960FB625
:1042D000F894DEBF0FBECDBFCF91DF910895DF937D
:1042E000CF93CDB7DEB7E6970FB6F894DEBF0FBE1B
:1042F000CDBF86E090E09CAB8BAB87E090E09AABC3
:1043000089ABA2E2B0E0E2E2F0E08081282F81E018
:1043100090E00BA802C0880F991F0A94E2F7282B9F
:1043200081E090E009A802C0880F991F0A94E2F783
:10433000809582238C93EAE8F0E083E08083A3E217
:10434000B0E0E3E2F0E08081282F81E090E00BA86C
:1043500002C0880F991F0A94E2F7809582238C93FC
:1043600080E090E0A0E2B1E48DA79EA7AFA7B8AB34
:104370006DA57EA58FA598A92BEA3AEA4AEA50E4F2
:104380000E94FB2ADC01CB0189A79AA7ABA7BCA797
:1043900069A57AA58BA59CA520E030E040E85FE305
:1043A0000E94012D88231CF481E088A791C069A593
:1043B0007AA58BA59CA520E030E04FE753E40E944E
:1043C000A12C18160CF07BC06DA57EA58FA598A911
:1043D00020E030E04AE754E40E94F52BDC01CB01F9
:1043E0008CA39DA3AEA3BFA36CA17DA18EA19FA111
:1043F00020E030E04AE755E40E94FB2ADC01CB01D3
:1044000088A399A3AAA3BBA368A179A18AA19BA110
:1044100020E030E040E85FE30E94012D88232CF487
:1044200081E090E09F8F8E8F3FC068A179A18AA123
:104430009BA120E03FEF4FE757E40E94A12C181604
:104440004CF56CA17DA18EA19FA120E030E040E25F
:1044500051E40E94FB2ADC01CB01BC01CD010E948A
:104460002529DC01CB019F8F8E8F0FC080E991E061
:104470009D8F8C8F8C8D9D8D0197F1F79D8F8C8FEB
:104480008E8D9F8D01979F8F8E8F8E8D9F8D009724
:1044900069F724C068A179A18AA19BA10E9425295E
:1044A000DC01CB019F8F8E8F8E8D9F8D9B8F8A8F8E
:1044B0008A8D9B8D0197F1F79B8F8A8F0FC069A51D
:1044C0007AA58BA59CA50E942529DC01CB0188A794
:1044D00088A5898F898D8A95F1F7898FA3E2B0E04D
:1044E000E3E2F0E08081282F81E090E00BA802C099
:1044F000880F991F0A94E2F7822B8C9380E090E05A
:10450000A0E2B1E48D8B9E8BAF8BB88F6D897E89D5
:104510008F89988D2BEA3AEA4AEA50E40E94FB2AF6
:10452000DC01CB01898B9A8BAB8BBC8B69897A8937
:104530008B899C8920E030E040E85FE30E94012DF8
:1045400088231CF481E0888B91C069897A898B89E2
:104550009C8920E030E04FE753E40E94A12C18161C
:104560000CF07BC06D897E898F89988D20E030E0CA
:104570004AE754E40E94F52BDC01CB018C879D8730
:10458000AE87BF876C857D858E859F8520E030E076
:104590004AE755E40E94FB2ADC01CB018887998712
:1045A000AA87BB87688579858A859B8520E030E06E
:1045B00040E85FE30E94012D88232CF481E090E025
:1045C0009F838E833FC0688579858A859B8520E09F
:1045D0003FEF4FE757E40E94A12C18164CF56C856D
:1045E0007D858E859F8520E030E040E251E40E9489
:1045F000FB2ADC01CB01BC01CD010E942529DC0195
:10460000CB019F838E830FC080E991E09D838C83D3
:104610008C819D810197F1F79D838C838E819F8191
:1046200001979F838E838E819F81009769F724C0B5
:10463000688579858A859B850E942529DC01CB01C7
:104640009F838E838E819F819B838A838A819B81B6
:104650000197F1F79B838A830FC069897A898B89D7
:104660009C890E942529DC01CB01888B888989835C
:1046700089818A95F1F78983A3E2B0E0E3E2F0E073
:104680008081282F81E090E00BA802C0880F991F3D
:104690000A94E2F7809582238C93E1E2F0E0808136
:1046A000882F90E009A802C0959587950A94E2F7B3
:1046B00081709070009789F3E8E8F0E01182108231
:1046C000E1E2F0E08081882F90E009A802C0959592
:1046D00087950A94E2F781709070882389F7EAE859
:1046E000F0E01082E8E8F0E080819181880F991F66
:1046F000880F991F96958795CC01A0E0B0E024E53E
:1047000031E040E050E0BC01CD010E942B2FDC01E4
:10471000CB0128EE33E040E050E0BC01CD010E9427
:104720004A2FDA01C9019EAB8DAB8DA99EA9E696F1
:104730000FB6F894DEBF0FBECDBFCF91DF910895C5
:10474000DF93CF93CDB7DEB7E6970FB6F894DEBF11
:104750000FBECDBF84E090E09CAB8BAB85E090E0DA
:104760009AAB89ABA2E2B0E0E2E2F0E08081282FD0
:1047700081E090E00BA802C0880F991F0A94E2F72D
:10478000282B81E090E009A802C0880F991F0A94A5
:10479000E2F7809582238C93EAE8F0E083E080835F
:1047A000A3E2B0E0E3E2F0E08081282F81E090E036
:1047B0000BA802C0880F991F0A94E2F78095822304
:1047C0008C9380E090E0A0E2B1E48DA79EA7AFA714
:1047D000B8AB6DA57EA58FA598A92BEA3AEA4AEA5F
:1047E00050E40E94FB2ADC01CB0189A79AA7ABA762
:1047F000BCA769A57AA58BA59CA520E030E040E880
:104800005FE30E94012D88231CF481E088A791C0FA
:1048100069A57AA58BA59CA520E030E04FE753E47D
:104820000E94A12C18160CF07BC06DA57EA58FA54B
:1048300098A920E030E04AE754E40E94F52BDC011F
:10484000CB018CA39DA3AEA3BFA36CA17DA18EA120
:104850009FA120E030E04AE755E40E94FB2ADC01FA
:10486000CB0188A399A3AAA3BBA368A179A18AA11C
:104870009BA120E030E040E85FE30E94012D882307
:104880002CF481E090E09F8F8E8F3FC068A179A1CA
:104890008AA19BA120E03FEF4FE757E40E94A12CA3
:1048A00018164CF56CA17DA18EA19FA120E030E0EF
:1048B00040E251E40E94FB2ADC01CB01BC01CD01A6
:1048C0000E942529DC01CB019F8F8E8F0FC080E9CC
:1048D00091E09D8F8C8F8C8D9D8D0197F1F79D8F31
:1048E0008C8F8E8D9F8D01979F8F8E8F8E8D9F8D3C
:1048F000009769F724C068A179A18AA19BA10E94B1
:104900002529DC01CB019F8F8E8F8E8D9F8D9B8FF4
:104910008A8F8A8D9B8D0197F1F79B8F8A8F0FC0AD
:1049200069A57AA58BA59CA50E942529DC01CB0150
:1049300088A788A5898F898D8A95F1F7898FA3E249
:10494000B0E0E3E2F0E08081282F81E090E00BA866
:1049500002C0880F991F0A94E2F7822B8C9380E0A3
:1049600090E0A0E2B1E48D8B9E8BAF8BB88F6D8908
:104970007E898F89988D2BEA3AEA4AEA50E40E94B0
:10498000FB2ADC01CB01898B9A8BAB8BBC8B6989B1
:104990007A898B899C8920E030E040E85FE30E94BF
:1049A000012D88231CF481E0888B91C069897A8964
:1049B0008B899C8920E030E04FE753E40E94A12CD2
:1049C00018160CF07BC06D897E898F89988D20E048
:1049D00030E04AE754E40E94F52BDC01CB018C87E0
:1049E0009D87AE87BF876C857D858E859F8520E0FE
:1049F00030E04AE755E40E94FB2ADC01CB018887BE
:104A00009987AA87BB87688579858A859B8520E0F9
:104A100030E040E85FE30E94012D88232CF481E020
:104A200090E09F838E833FC0688579858A859B85CA
:104A300020E03FEF4FE757E40E94A12C18164CF5F9
:104A40006C857D858E859F8520E030E040E251E4D5
:104A50000E94FB2ADC01CB01BC01CD010E9425296B
:104A6000DC01CB019F838E830FC080E991E09D83A1
:104A70008C838C819D810197F1F79D838C838E813E
:104A80009F8101979F838E838E819F81009769F715
:104A900024C0688579858A859B850E942529DC014B
:104AA000CB019F838E838E819F819B838A838A81A2
:104AB0009B810197F1F79B838A830FC069897A896B
:104AC0008B899C890E942529DC01CB01888B8889F0
:104AD000898389818A95F1F78983A3E2B0E0E3E2D3
:104AE000F0E08081282F81E090E00BA802C0880FC1
:104AF000991F0A94E2F7809582238C93E1E2F0E01B
:104B00008081882F90E009A802C0959587950A9426
:104B1000E2F781709070009789F3E8E8F0E0118285
:104B20001082E1E2F0E08081882F90E009A802C0C5
:104B3000959587950A94E2F781709070882389F79C
:104B4000EAE8F0E01082E8E8F0E080819181880FE7
:104B5000991F880F991F96958795CC01A0E0B0E02A
:104B600024E531E040E050E0BC01CD010E942B2F54
:104B7000DC01CB0128EE33E040E050E0BC01CD0188
:104B80000E944A2FDA01C9019EAB8DAB8DA99EA967
:104B9000E6960FB6F894DEBF0FBECDBFCF91DF9182
:104BA0000895DF93CF93CDB7DEB7E6970FB6F894AD
:104BB000DEBF0FBECDBF82E090E09CAB8BAB83E04D
:104BC00090E09AAB89ABA2E2B0E0E2E2F0E0808153
:104BD000282F81E090E00BA802C0880F991F0A944B
:104BE000E2F7282B81E090E009A802C0880F991F06
:104BF0000A94E2F7809582238C93EAE8F0E083E060
:104C00008083A3E2B0E0E3E2F0E08081282F81E03E
:104C100090E00BA802C0880F991F0A94E2F78095D4
:104C200082238C9380E090E0A0E2B1E48DA79EA760
:104C3000AFA7B8AB6DA57EA58FA598A92BEA3AEAD8
:104C40004AEA50E40E94FB2ADC01CB0189A79AA71B
:104C5000ABA7BCA769A57AA58BA59CA520E030E0F1
:104C600040E85FE30E94012D88231CF481E088A7BF
:104C700091C069A57AA58BA59CA520E030E04FE7FF
:104C800053E40E94A12C18160CF07BC06DA57EA5E4
:104C90008FA598A920E030E04AE754E40E94F52B64
:104CA000DC01CB018CA39DA3AEA3BFA36CA17DA10E
:104CB0008EA19FA120E030E04AE755E40E94FB2A44
:104CC000DC01CB0188A399A3AAA3BBA368A179A106
:104CD0008AA19BA120E030E040E85FE30E94012D23
:104CE00088232CF481E090E09F8F8E8F3FC068A1D5
:104CF00079A18AA19BA120E03FEF4FE757E40E94F2
:104D0000A12C18164CF56CA17DA18EA19FA120E0CD
:104D100030E040E251E40E94FB2ADC01CB01BC01FF
:104D2000CD010E942529DC01CB019F8F8E8F0FC002
:104D300080E991E09D8F8C8F8C8D9D8D0197F1F78F
:104D40009D8F8C8F8E8D9F8D01979F8F8E8F8E8DD7
:104D50009F8D009769F724C068A179A18AA19BA1C2
:104D60000E942529DC01CB019F8F8E8F8E8D9F8D18
:104D70009B8F8A8F8A8D9B8D0197F1F79B8F8A8FEE
:104D80000FC069A57AA58BA59CA50E942529DC01E9
:104D9000CB0188A788A5898F898D8A95F1F7898F9E
:104DA000A3E2B0E0E3E2F0E08081282F81E090E030
:104DB0000BA802C0880F991F0A94E2F7822B8C93EC
:104DC00080E090E0A0E2B1E48D8B9E8BAF8BB88F3A
:104DD0006D897E898F89988D2BEA3AEA4AEA50E4F8
:104DE0000E94FB2ADC01CB01898B9A8BAB8BBC8B9D
:104DF00069897A898B899C8920E030E040E85FE30B
:104E00000E94012D88231CF481E0888B91C0698960
:104E10007A898B899C8920E030E04FE753E40E9437
:104E2000A12C18160CF07BC06D897E898F89988D16
:104E300020E030E04AE754E40E94F52BDC01CB018E
:104E40008C879D87AE87BF876C857D858E859F8586
:104E500020E030E04AE755E40E94FB2ADC01CB0168
:104E600088879987AA87BB87688579858A859B8586
:104E700020E030E040E85FE30E94012D88232CF41D
:104E800081E090E09F838E833FC0688579858A8525
:104E90009B8520E03FEF4FE757E40E94A12C1816B6
:104EA0004CF56C857D858E859F8520E030E040E265
:104EB00051E40E94FB2ADC01CB01BC01CD010E9420
:104EC0002529DC01CB019F838E830FC080E991E00F
:104ED0009D838C838C819D810197F1F79D838C83C9
:104EE0008E819F8101979F838E838E819F81009702
:104EF00069F724C0688579858A859B850E94252964
:104F0000DC01CB019F838E838E819F819B838A836B
:104F10008A819B810197F1F79B838A830FC06989FE
:104F20007A898B899C890E942529DC01CB01888B99
:104F30008889898389818A95F1F78983A3E2B0E022
:104F4000E3E2F0E08081282F81E090E00BA802C02E
:104F5000880F991F0A94E2F7809582238C93E1E2EF
:104F6000F0E08081882F90E009A802C09595879590
:104F70000A94E2F781709070009789F3E8E8F0E016
:104F800011821082E1E2F0E08081882F90E009A890
:104F900002C0959587950A94E2F7817090708823F6
:104FA00089F7EAE8F0E01082E8E8F0E0808191819A
:104FB000880F991F880F991F96958795CC01A0E0BF
:104FC000B0E024E531E040E050E0BC01CD010E94BA
:104FD0002B2FDC01CB0128EE33E040E050E0BC0198
:104FE000CD010E944A2FDA01C9019EAB8DAB8DA97C
:104FF0009EA9E6960FB6F894DEBF0FBECDBFCF9147
:10500000DF910895DF93CF93CDB7DEB7E9E2F0E00B
:1050100087E68083EAE2F0E088E18083E5E9F0E07A
:1050200086E0808385E691E09093D5018093D4015A
:105030008091D4019091D5019093D1018093D001BA
:105040008091D0019091D1019093D3018093D201AE
:10505000CF91DF910895DF93CF930F92CDB7DEB755
:105060008983EBE2F0E08081882F90E0807290707D
:105070000097B9F3ECE2F0E08981808380E090E072
:105080000F90CF91DF910895DF93CF93CDB7DEB727
:10509000EBE2F0E080818823DCF7ECE2F0E0808155
:1050A000882F90E0CF91DF910895DF93CF930F92F7
:1050B000CDB7DEB71982EBE2F0E08081882314F4EB
:1050C00081E0898389810F90CF91DF910895DF93EB
:1050D000CF9300D00F92CDB7DEB789837B836A83ED
:1050E00089818A3031F42A813B818DE0B9010E94A7
:1050F0006728EBE2F0E08081882F90E0807290706A
:105100000097B9F3ECE2F0E08981808380E090E0E1
:105110000F900F900F90CF91DF910895DF93CF9371
:10512000CDB7DEB727970FB6F894DEBF0FBECDBF61
:105130009D838C8380917C0190917D01009709F083
:1051400061C08EE791E09A838983EBE2F0E0808191
:105150008823DCF7EBE2F0E08081882F90E080711B
:105160009070009729F02EEF3FEF3F832E8362C0AF
:10517000EBE2F0E08081882F90E0887090700097DB
:1051800029F08FEF9FEF9F838E8354C0ECE2F0E015
:1051900080818B838B818D3011F48AE08B838B81AE
:1051A0008A3089F4E981FA818B8180832C813D8169
:1051B0008B81B9010E9467288EE791E090937D0171
:1051C00080937C011FC08B81803208F4BECF8B811D
:1051D0008F3708F0BACF89819A8121E08D3C920700
:1051E00008F0B3CFE981FA818B81808389819A812C
:1051F00001969A8389832C813D818B81B9010E941C
:105200006728A3CFE0917C01F0917D0180818B83A1
:10521000CF01019690937D0180937C018B818A3030
:1052200021F410927D0110927C018B81282F30E0B7
:105230003F832E838E819F8127960FB6F894DEBF21
:105240000FBECDBFCF91DF910895EF92FF920F93E4
:105250001F937B018C0120E030E040E05FE40E947E
:10526000D12C88238CF0C801B70120E030E040E069
:105270005FE40E949D2A0E94312D9B01AC012050C9
:1052800030404040504806C0C801B7010E94312D4F
:105290009B01AC01B901CA011F910F91FF90EF90E2
:1052A0000895A0E0B0E0E7E5F9E20C946C2FDC0192
:1052B0002B01FA019C91923008F439C1EB018881ED
:1052C000823008F433C1943069F4843009F02FC17E
:1052D00011969C9111978981981709F428C1A3E729
:1052E000B1E025C1843009F421C18230A9F49230A3
:1052F00009F01DC19A01AD0188E0EA010990AE01F3
:10530000E90109929E018150C1F7E201898111965C
:105310009C918923818308C1923009F407C11296B8
:105320002D903C901397EB018A819B811496AD9050
:10533000BD90CD90DC901797EC80FD800E811F8191
:105340009101281B390BB90137FF04C06627772765
:10535000621B730B603271050CF061C012161306EC
:105360006CF537014801062E04C096948794779413
:1053700067940A94D2F721E030E040E050E004C0A6
:10538000220F331F441F551F6A95D2F7215030401A
:10539000404050402E213F2140235123211531050B
:1053A0004105510521F021E030E040E050E0790175
:1053B0008A01E628F728082919293CC0232BD1F1B6
:1053C000260E371E35014601062E04C0969487949A
:1053D000779467940A94D2F721E030E040E050E0FF
:1053E00004C0220F331F441F551F6A95D2F7215066
:1053F0003040404050402A213B214C215D21211565
:1054000031054105510521F021E030E040E050E058
:1054100059016A01A628B728C828D9280BC08215C7
:1054200093052CF01C01AA24BB24650103C0EE24C3
:10543000FF24870111969C91D20111968C919817A7
:1054400009F445C0992339F0A80197012A193B09AD
:105450004C095D0906C0A60195012E193F09400BB4
:10546000510B57FD08C01182338222822483358379
:10547000468357831DC081E081833382228288273F
:105480009927DC01821B930BA40BB50B84839583B6
:10549000A683B7830DC0220F331F441F551F2483DB
:1054A00035834683578382819381019793838283D7
:1054B0002481358146815781DA01C9010197A1090B
:1054C000B1098F5F9F4FAF4FBF4328F30BC091834C
:1054D00033822282EA0CFB1C0C1D1D1DE482F58226
:1054E0000683178383E08083248135814681578139
:1054F00057FF1AC0C901AA2797FDA095BA2F81703E
:105500009070A070B0705695479537952795822B6F
:10551000932BA42BB52B84839583A683B783828199
:105520009381019693838283DF0101C0D201CD0173
:10553000CDB7DEB7E2E10C94882FA0E2B0E0E3EA59
:10554000FAE20C94782F69837A838B839C832D8372
:105550003E834F835887E9E0EE2EF12CEC0EFD1EC2
:10556000CE010196B7010E945A2E8E010F5E1F4F89
:10557000CE010596B8010E945A2E8A8991E08927AA
:105580008A8BC701B801AE01475E5F4F0E94512967
:105590000E94852DA096E6E00C94942FA0E2B0E046
:1055A000E4EDFAE20C94782F69837A838B839C83F1
:1055B0002D833E834F835887F9E0EF2EF12CEC0EBC
:1055C000FD1ECE010196B7010E945A2E8E010F5E7C
:1055D0001F4FCE010596B8010E945A2EC701B8018F
:1055E000AE01475E5F4F0E9451290E94852DA09613
:1055F000E6E00C94942FA0E2B0E0E1E0FBE20C9432
:105600006C2F69837A838B839C832D833E834F83A6
:105610005887CE010196BE01675F7F4F0E945A2EC8
:10562000CE010596BE016F5E7F4F0E945A2E99856E
:10563000923088F089898230C8F0943019F4823031
:1056400051F404C0843029F4923081F483E791E06E
:10565000C6C0923049F420E09A858A89981321E0E7
:105660002A87CE010996BBC0823049F420E09A8592
:105670008A89981321E02A8BCE014196B0C02D84EF
:105680003E844F8458886D887E888F88988CEE245D
:10569000FF248701AA24BB24650140E050E060E0BC
:1056A00070E0E0E0F0E0C10181709070892BE9F0DA
:1056B000E60CF71C081D191D9A01AB012A0D3B1DB4
:1056C0004C1D5D1D80E090E0A0E0B0E0E614F70422
:1056D0000805190520F481E090E0A0E0B0E0BA01EF
:1056E000A901480F591F6A1F7B1FAA0CBB1CCC1CA9
:1056F000DD1C97FE08C081E090E0A0E0B0E0A82AA1
:10570000B92ACA2ADB2A3196E032F10549F0660C43
:10571000771C881C991C5694479437942794C3CFC0
:10572000FA85EA892B893C898B859C85280F391F4E
:105730002E5F3F4F17C0CA0181709070892B61F0B6
:1057400016950795F794E79480E090E0A0E0B0E824
:10575000E82AF92A0A2B1B2B7695679557954795CA
:105760002F5F3F4F77FDE7CF0CC0440F551F661FDB
:10577000771F17FD4160EE0CFF1C001F111F215009
:105780003040403090E0590790E0690790E4790795
:1057900060F32B8F3C8FDB01CA018F779070A07074
:1057A000B07080349105A105B10561F447FD0AC0D0
:1057B000E114F1040105110529F0405C5F4F6F4FC2
:1057C0007F4F40781A8EFE1711F081E08A8F4D8F3F
:1057D0005E8F6F8F78A383E0898FCE0149960E94F8
:1057E000852DA096E2E10C94882FA8E1B0E0EBEFC4
:1057F000FBE20C94742F69837A838B839C832D83C3
:105800003E834F835887B9E0EB2EF12CEC0EFD1E42
:10581000CE010196B7010E945A2E8E010F5E1F4FD6
:10582000CE010596B8010E945A2E2985223008F42F
:105830007EC03989323010F4B8017CC08A859A89DB
:1058400089278A87243011F0223031F4231709F098
:105850006EC063E771E06EC0343039F41D861E8679
:105860001F86188A1C861B8604C0323021F484E00F
:105870008987B7015FC02B853C858B899C89281B54
:10588000390B3C872B87ED84FE840F851889AD8802
:10589000BE88CF88D88CEA14FB040C051D0540F4A3
:1058A000EE0CFF1C001F111F215030403C872B873E
:1058B00020E030E040E050E080E090E0A0E0B0E4A4
:1058C00060E070E0EA14FB040C051D0540F0282B95
:1058D000392B4A2B5B2BEA18FB080C091D09B695DE
:1058E000A79597958795EE0CFF1C001F111F6F5F02
:1058F0007F4F6F31710531F7DA01C9018F779070F1
:10590000A070B07080349105A105B10561F427FD48
:105910000AC0E114F1040105110529F0205C3F4F94
:105920004F4F5F4F20782D873E874F87588BBE01A2
:10593000675F7F4FCB010E94852D6896EAE00C944B
:10594000902FA8E1B0E0E7EAFCE20C94782F69839D
:105950007A838B839C832D833E834F83588789E092
:10596000E82EF12CEC0EFD1ECE010196B7010E942F
:105970005A2E8E010F5E1F4FCE010596B8010E9470
:105980005A2E8985823040F08989823028F0C701FB
:10599000B8010E94D22E01C08FEF6896E6E00C9409
:1059A000942FA8E1B0E0E7EDFCE20C94782F698336
:1059B0007A838B839C832D833E834F83588789E032
:1059C000E82EF12CEC0EFD1ECE010196B7010E94CF
:1059D0005A2E8E010F5E1F4FCE010596B8010E9410
:1059E0005A2E8985823040F08989823028F0C7019B
:1059F000B8010E94D22E01C08FEF6896E6E00C94A9
:105A0000942FA8E1B0E0E7E0FDE20C94782F6983E1
:105A10007A838B839C832D833E834F83588789E0D1
:105A2000E82EF12CEC0EFD1ECE010196B7010E946E
:105A30005A2E8E010F5E1F4FCE010596B8010E94AF
:105A40005A2E8985823040F08989823028F0C7013A
:105A5000B8010E94D22E01C081E06896E6E00C9465
:105A6000942FACE0B0E0E7E3FDE20C947C2F698377
:105A70007A838B839C83CE010196BE016B5F7F4F3F
:105A80000E945A2E8D81823061F1823050F1843033
:105A900021F48E81882351F12EC02F81388537FD66
:105AA00020C06E812F3131051CF06623F9F023C030
:105AB0008EE190E0821B930B29853A854B855C85AE
:105AC00004C056954795379527958A95D2F7662352
:105AD000B1F050954095309521953F4F4F4F5F4F16
